{
  "_format": "hh-sol-artifact-1",
  "contractName": "Consensus",
  "sourceName": "contracts/consensus.sol",
  "abi": [
    {
      "inputs": [
        {
          "internalType": "string",
          "name": "_proposal",
          "type": "string"
        },
        {
          "internalType": "uint256",
          "name": "_quorum",
          "type": "uint256"
        }
      ],
      "stateMutability": "nonpayable",
      "type": "constructor"
    },
    {
      "inputs": [
        {
          "internalType": "address",
          "name": "",
          "type": "address"
        }
      ],
      "name": "eligibleVoters",
      "outputs": [
        {
          "internalType": "bool",
          "name": "",
          "type": "bool"
        }
      ],
      "stateMutability": "view",
      "type": "function"
    },
    {
      "inputs": [],
      "name": "finalizeVote",
      "outputs": [
        {
          "internalType": "string",
          "name": "",
          "type": "string"
        }
      ],
      "stateMutability": "view",
      "type": "function"
    },
    {
      "inputs": [],
      "name": "getResults",
      "outputs": [
        {
          "internalType": "uint256",
          "name": "_voteYes",
          "type": "uint256"
        },
        {
          "internalType": "uint256",
          "name": "_voteNo",
          "type": "uint256"
        }
      ],
      "stateMutability": "view",
      "type": "function"
    },
    {
      "inputs": [
        {
          "internalType": "address",
          "name": "",
          "type": "address"
        }
      ],
      "name": "hasVoted",
      "outputs": [
        {
          "internalType": "bool",
          "name": "",
          "type": "bool"
        }
      ],
      "stateMutability": "view",
      "type": "function"
    },
    {
      "inputs": [],
      "name": "proposal",
      "outputs": [
        {
          "internalType": "string",
          "name": "",
          "type": "string"
        }
      ],
      "stateMutability": "view",
      "type": "function"
    },
    {
      "inputs": [],
      "name": "quorum",
      "outputs": [
        {
          "internalType": "uint256",
          "name": "",
          "type": "uint256"
        }
      ],
      "stateMutability": "view",
      "type": "function"
    },
    {
      "inputs": [],
      "name": "totalVotes",
      "outputs": [
        {
          "internalType": "uint256",
          "name": "",
          "type": "uint256"
        }
      ],
      "stateMutability": "view",
      "type": "function"
    },
    {
      "inputs": [],
      "name": "updateEligibility",
      "outputs": [],
      "stateMutability": "nonpayable",
      "type": "function"
    },
    {
      "inputs": [
        {
          "internalType": "bool",
          "name": "_voteYes",
          "type": "bool"
        }
      ],
      "name": "vote",
      "outputs": [],
      "stateMutability": "nonpayable",
      "type": "function"
    },
    {
      "inputs": [],
      "name": "voteNo",
      "outputs": [
        {
          "internalType": "uint256",
          "name": "",
          "type": "uint256"
        }
      ],
      "stateMutability": "view",
      "type": "function"
    },
    {
      "inputs": [],
      "name": "voteNull",
      "outputs": [
        {
          "internalType": "uint256",
          "name": "",
          "type": "uint256"
        }
      ],
      "stateMutability": "view",
      "type": "function"
    },
    {
      "inputs": [],
      "name": "voteNullify",
      "outputs": [],
      "stateMutability": "nonpayable",
      "type": "function"
    },
    {
      "inputs": [],
      "name": "voteYes",
      "outputs": [
        {
          "internalType": "uint256",
          "name": "",
          "type": "uint256"
        }
      ],
      "stateMutability": "view",
      "type": "function"
    }
  ],
  "bytecode": "0x608060405234801561001057600080fd5b506040516113f33803806113f3833981810160405281019061003291906101fb565b8160009081610041919061046e565b50806001819055505050610540565b6000604051905090565b600080fd5b600080fd5b600080fd5b600080fd5b6000601f19601f8301169050919050565b7f4e487b7100000000000000000000000000000000000000000000000000000000600052604160045260246000fd5b6100b78261006e565b810181811067ffffffffffffffff821117156100d6576100d561007f565b5b80604052505050565b60006100e9610050565b90506100f582826100ae565b919050565b600067ffffffffffffffff8211156101155761011461007f565b5b61011e8261006e565b9050602081019050919050565b60005b8381101561014957808201518184015260208101905061012e565b60008484015250505050565b6000610168610163846100fa565b6100df565b90508281526020810184848401111561018457610183610069565b5b61018f84828561012b565b509392505050565b600082601f8301126101ac576101ab610064565b5b81516101bc848260208601610155565b91505092915050565b6000819050919050565b6101d8816101c5565b81146101e357600080fd5b50565b6000815190506101f5816101cf565b92915050565b600080604083850312156102125761021161005a565b5b600083015167ffffffffffffffff8111156102305761022f61005f565b5b61023c85828601610197565b925050602061024d858286016101e6565b9150509250929050565b600081519050919050565b7f4e487b7100000000000000000000000000000000000000000000000000000000600052602260045260246000fd5b600060028204905060018216806102a957607f821691505b6020821081036102bc576102bb610262565b5b50919050565b60008190508160005260206000209050919050565b60006020601f8301049050919050565b600082821b905092915050565b6000600883026103247fffffffffffffffffffffffffffffffffffffffffffffffffffffffffffffffff826102e7565b61032e86836102e7565b95508019841693508086168417925050509392505050565b6000819050919050565b600061036b610366610361846101c5565b610346565b6101c5565b9050919050565b6000819050919050565b61038583610350565b61039961039182610372565b8484546102f4565b825550505050565b600090565b6103ae6103a1565b6103b981848461037c565b505050565b5b818110156103dd576103d26000826103a6565b6001810190506103bf565b5050565b601f821115610422576103f3816102c2565b6103fc846102d7565b8101602085101561040b578190505b61041f610417856102d7565b8301826103be565b50505b505050565b600082821c905092915050565b600061044560001984600802610427565b1980831691505092915050565b600061045e8383610434565b9150826002028217905092915050565b61047782610257565b67ffffffffffffffff8111156104905761048f61007f565b5b61049a8254610291565b6104a58282856103e1565b600060209050601f8311600181146104d857600084156104c6578287015190505b6104d08582610452565b865550610538565b601f1984166104e6866102c2565b60005b8281101561050e578489015182556001820191506020850194506020810190506104e9565b8683101561052b5784890151610527601f891682610434565b8355505b6001600288020188555050505b505050505050565b610ea48061054f6000396000f3fe608060405234801561001057600080fd5b50600436106100cf5760003560e01c80635277353e1161008c578063753ec10311610066578063753ec103146101df57806390cf581c146101fd578063ce0c7f741461021b578063e8efd48014610225576100cf565b80635277353e1461019957806354ef7f2d146101a357806359390e24146101c1576100cf565b806309eef43e146100d45780630d15fd77146101045780631703a0181461012257806341c12a70146101405780634717f97c1461015e5780634b9f5c981461017d575b600080fd5b6100ee60048036038101906100e991906109c2565b610255565b6040516100fb9190610a0a565b60405180910390f35b61010c610275565b6040516101199190610a3e565b60405180910390f35b61012a61027b565b6040516101379190610a3e565b60405180910390f35b610148610281565b6040516101559190610a3e565b60405180910390f35b610166610287565b604051610174929190610a59565b60405180910390f35b61019760048036038101906101929190610aae565b610298565b005b6101a161054f565b005b6101ab61064e565b6040516101b89190610b6b565b60405180910390f35b6101c96107c7565b6040516101d69190610a3e565b60405180910390f35b6101e76107cd565b6040516101f49190610b6b565b60405180910390f35b61020561085b565b6040516102129190610a3e565b60405180910390f35b610223610861565b005b61023f600480360381019061023a91906109c2565b61093f565b60405161024c9190610a0a565b60405180910390f35b60026020528060005260406000206000915054906101000a900460ff1681565b60075481565b60015481565b60055481565b600080600454600554915091509091565b670de0b6b3a76400003373ffffffffffffffffffffffffffffffffffffffff163110156102fa576040517f08c379a00000000000000000000000000000000000000000000000000000000081526004016102f190610bff565b60405180910390fd5b600260003373ffffffffffffffffffffffffffffffffffffffff1673ffffffffffffffffffffffffffffffffffffffff16815260200190815260200160002060009054906101000a900460ff1615610387576040517f08c379a000000000000000000000000000000000000000000000000000000000815260040161037e90610c6b565b60405180910390fd5b600260003373ffffffffffffffffffffffffffffffffffffffff1673ffffffffffffffffffffffffffffffffffffffff16815260200190815260200160002060009054906101000a900460ff1615610414576040517f08c379a000000000000000000000000000000000000000000000000000000000815260040161040b90610c6b565b60405180910390fd5b600360003373ffffffffffffffffffffffffffffffffffffffff1673ffffffffffffffffffffffffffffffffffffffff16815260200190815260200160002060009054906101000a900460ff166104a0576040517f08c379a000000000000000000000000000000000000000000000000000000000815260040161049790610cd7565b60405180910390fd5b6001600260003373ffffffffffffffffffffffffffffffffffffffff1673ffffffffffffffffffffffffffffffffffffffff16815260200190815260200160002060006101000a81548160ff0219169083151502179055506007600081548092919061050b90610d26565b91905055508015610533576004600081548092919061052990610d26565b919050555061054c565b6005600081548092919061054690610d26565b91905055505b50565b600260003373ffffffffffffffffffffffffffffffffffffffff1673ffffffffffffffffffffffffffffffffffffffff16815260200190815260200160002060009054906101000a900460ff16156105dc576040517f08c379a00000000000000000000000000000000000000000000000000000000081526004016105d390610c6b565b60405180910390fd5b6001600260003373ffffffffffffffffffffffffffffffffffffffff1673ffffffffffffffffffffffffffffffffffffffff16815260200190815260200160002060006101000a81548160ff0219169083151502179055506006600081548092919061064790610d26565b9190505550565b60606001546006546005546004546106669190610d6e565b6106709190610d6e565b10156106b1576040517f08c379a00000000000000000000000000000000000000000000000000000000081526004016106a890610dee565b60405180910390fd5b60055460045411156106fa576040518060400160405280601281526020017f50726f706f73616c20617070726f7665642e000000000000000000000000000081525090506107c4565b60055460045403610742576040518060400160405280600e81526020017f50726f706f73616c20746965642e00000000000000000000000000000000000081525090506107c4565b600454600654111561078b576040518060400160405280601181526020017f50726f706f73616c20696e76616c69642e00000000000000000000000000000081525090506107c4565b6040518060400160405280601281526020017f50726f706f73616c2072656a65637465642e000000000000000000000000000081525090505b90565b60065481565b600080546107da90610e3d565b80601f016020809104026020016040519081016040528092919081815260200182805461080690610e3d565b80156108535780601f1061082857610100808354040283529160200191610853565b820191906000526020600020905b81548152906001019060200180831161083657829003601f168201915b505050505081565b60045481565b670de0b6b3a76400003373ffffffffffffffffffffffffffffffffffffffff1631106108e4576001600360003373ffffffffffffffffffffffffffffffffffffffff1673ffffffffffffffffffffffffffffffffffffffff16815260200190815260200160002060006101000a81548160ff02191690831515021790555061093d565b6000600360003373ffffffffffffffffffffffffffffffffffffffff1673ffffffffffffffffffffffffffffffffffffffff16815260200190815260200160002060006101000a81548160ff0219169083151502179055505b565b60036020528060005260406000206000915054906101000a900460ff1681565b600080fd5b600073ffffffffffffffffffffffffffffffffffffffff82169050919050565b600061098f82610964565b9050919050565b61099f81610984565b81146109aa57600080fd5b50565b6000813590506109bc81610996565b92915050565b6000602082840312156109d8576109d761095f565b5b60006109e6848285016109ad565b91505092915050565b60008115159050919050565b610a04816109ef565b82525050565b6000602082019050610a1f60008301846109fb565b92915050565b6000819050919050565b610a3881610a25565b82525050565b6000602082019050610a536000830184610a2f565b92915050565b6000604082019050610a6e6000830185610a2f565b610a7b6020830184610a2f565b9392505050565b610a8b816109ef565b8114610a9657600080fd5b50565b600081359050610aa881610a82565b92915050565b600060208284031215610ac457610ac361095f565b5b6000610ad284828501610a99565b91505092915050565b600081519050919050565b600082825260208201905092915050565b60005b83811015610b15578082015181840152602081019050610afa565b60008484015250505050565b6000601f19601f8301169050919050565b6000610b3d82610adb565b610b478185610ae6565b9350610b57818560208601610af7565b610b6081610b21565b840191505092915050565b60006020820190508181036000830152610b858184610b32565b905092915050565b7f596f75206d7573742068617665206174206c6561737420312045544820746f2060008201527f766f74652e000000000000000000000000000000000000000000000000000000602082015250565b6000610be9602583610ae6565b9150610bf482610b8d565b604082019050919050565b60006020820190508181036000830152610c1881610bdc565b9050919050565b7f596f75206861766520616c726561647920766f7465642e000000000000000000600082015250565b6000610c55601783610ae6565b9150610c6082610c1f565b602082019050919050565b60006020820190508181036000830152610c8481610c48565b9050919050565b7f596f7520617265206e6f7420616c6c6f77656420746f20766f74652e00000000600082015250565b6000610cc1601c83610ae6565b9150610ccc82610c8b565b602082019050919050565b60006020820190508181036000830152610cf081610cb4565b9050919050565b7f4e487b7100000000000000000000000000000000000000000000000000000000600052601160045260246000fd5b6000610d3182610a25565b91507fffffffffffffffffffffffffffffffffffffffffffffffffffffffffffffffff8203610d6357610d62610cf7565b5b600182019050919050565b6000610d7982610a25565b9150610d8483610a25565b9250828201905080821115610d9c57610d9b610cf7565b5b92915050565b7f51756f72756d206e6f7420726561636865642e00000000000000000000000000600082015250565b6000610dd8601383610ae6565b9150610de382610da2565b602082019050919050565b60006020820190508181036000830152610e0781610dcb565b9050919050565b7f4e487b7100000000000000000000000000000000000000000000000000000000600052602260045260246000fd5b60006002820490506001821680610e5557607f821691505b602082108103610e6857610e67610e0e565b5b5091905056fea2646970667358221220ef1e01d775d4daef4bf2664c390237669d26e8d9ee1183942dddea1f4b41005a64736f6c634300081b0033",
  "linkReferences": {},
  "deployedLinkReferences": {}
}